:020000040800F2
:10000000B805002001010008E30B0008D108000832
:10001000E10B00089F0100084319000800000000E0
:10002000000000000000000000000000B90F000800
:100030009106000800000000A50D0008D916000870
:100040001B0100081B0100081B0100081B01000820
:100050001B0100081B0100081B0100081B01000810
:100060001B0100081B0100081B0100081B01000800
:100070001B0100081B0100081B0100081B010008F0
:100080001B0100081B0100081B0100081B010008E0
:10009000F91800081B0100081B010008A106000850
:1000A0001B0100081B0100081B0100081B010008C0
:1000B0001B0100081B0100081B0100081B010008B0
:1000C0001B0100081B0100081B0100081B010008A0
:1000D0001B0100081B0100081B0100081B01000890
:1000E0001B0100081B0100082D170008DFF80CD0C9
:1000F00000F018F80048004791190008B8050020E2
:100100000648804706480047FEE7FEE7FEE7FEE7B1
:10011000FEE7FEE7FEE7FEE7FEE7FEE7DD16000886
:10012000ED000008064C074D06E0E06840F00103D2
:1001300094E8070098471034AC42F6D3FFF7DAFF93
:100140003C1B00085C1B000870B58C1810F8015BA4
:1001500015F0070301D110F8013B2A1106D110F860
:10016000012B03E010F8016B01F8016B5B1EF9D164
:100170002B0705D40023521E0DD401F8013BFAE7EA
:1001800010F8013BCB1A921C03E013F8015B01F855
:10019000015B521EF9D5A142D8D3002070BDFEE705
:1001A000C1B2000A40EA0120704700002DE9F84F73
:1001B0000020ADF80000DFF834A14BF6BF7648F21E
:1001C00080074A4D4A4C40F68F7848F60F7BDFF89F
:1001D00024910AF1440A31E00888474A10F00F00E0
:1001E000107034D0454901EB8001D1F8002CADF8F6
:1001F0000020BDF8002012040BD5D1F8002C02EA33
:100200000802C1F8002C3E4901EB800050F8040CB4
:100210008047BDF80000000610D537483749007800
:1002200001EB8001D1F8002C02EA0B02C1F8002C8E
:10023000344901EB800050F8040C8047DAF80000E4
:100240004946A9F800000004C6D4BDE8F88F286824
:100250002080208800F030006080208800F440502A
:1002600020802868304080F4005080F0200038431F
:1002700028600888C006286815D400EA0B002860AA
:1002800000F028FB26E02188890401D580F4005085
:100290006188C90626D46188890601D580F02000CE
:1002A00038432860D1E7ADF80000BDF80000000534
:1002B00006D5286800EA0800286001F007F809E080
:1002C000BDF800000004B9D5286800EA08002860DD
:1002D00000F034FD286821883040C904D3D580F46B
:1002E0008050D0E780F01000D5E70000005C0040AF
:1002F00000000020220100200C00002000500040DF
:10030000480100202C010020810008480844D0F852
:10031000001C490409D5D0F8001C48F68F72114022
:100320004CF280021143C0F8001C7047005000409E
:10033000810008480844D0F8001C490609D5D0F8C7
:10034000001C48F68F72114048F2C0021143C0F8F9
:10035000001C704700500040810006480144D1F85D
:10036000000C48F68F62104048F280021043C1F83A
:10037000000C7047005000402DE9F047DFF89480F2
:10038000254F4FF03009D8F8001001F11005088A08
:100390000E7A08B9042E04D0AC88A04215D80426E1
:1003A00014E01E480178012903D007261020388068
:1003B0002BE01B4A002112681A4B120403EBD232C5
:1003C0005160A7F8009001701FE00226844200D916
:1003D0000446A968204688478246002000F050FA6B
:1003E00001462246504601F0ADFA2146002000F0B9
:1003F0007BFE2888001B2880688820446880A7F836
:10040000009009494FF440500880D8F80000067267
:10041000BDE8F0871000002002000020040000204A
:10042000505C004000600040000000202DE9F047D3
:100430002A4EDFF8AC802B4F35684FF0300935F885
:10044000100FA968A9B100B3AC88844200D9044652
:100450002046884782462888001B288068882044D8
:100460006880002000F0FCF901462246504600F06A
:1004700089FC288848B14FF44051A8F800100021A9
:10048000084600F031FEA7F800902888A988884225
:1004900001D3032001E020B1052031680872BDE8D6
:1004A000F0873168062008720F480068806880472E
:1004B0003068007A08280AD00C49002009680C4AE4
:1004C000090402EBD131486048463880E7E74FF431
:1004D0008051A8F800101020F7E70000100000205D
:1004E000000000200200002014000020505C0040AA
:1004F00000600040F8B55D4C5D4D0926206800277E
:1005000029684278062A05D0AAB1082A4DD00A2ABD
:1005100050D06BE00278520668D18078012804D070
:10052000022804D0032804D060E0C96956E0096AB3
:1005300054E0496A52E04288B2BBC288022A55D1CF
:1005400002798ABB0278530601D1838833B102F065
:100550007F02012A04D0022A0CD047E045493DE041
:100560008A69407900219047F0B92068807A002894
:10057000F4D13BE0417901F00F0001F070020B066D
:100580003D4901EB8001D1F8001C03D5C1F30111F5
:10059000090102E0C1F301310903384B1B788342A2
:1005A00024D90AB90029D9D120E0007840061DD10C
:1005B000334913E0027802F07F02012A16D1827AD1
:1005C000A2B1428892B9027982B9C288012A0DD1BA
:1005D0008A6940790021904740B92A4931B12068A1
:1005E0004782816100208847002006E02968206852
:1005F000096940788847032813D021680A8AA2F540
:100600007F43FF3B0BD002280ED06AB1087800066A
:1006100026D5C888009082420AD9088218E00E7256
:10062000F8BD20680672F8BD4FF008000872F8BDEA
:100630000ED22868144B90F82C00824201D21F7011
:1006400006E0B2FBF0F400FB142008B9012018709A
:10065000286890F82C008882BDE8F840FFF78CBE2F
:1006600003200872094900030880F8BD100000202B
:10067000140000209D140008005000406800002075
:100680003114000875140008040000200000002048
:100690007047000001490120087070477401002074
:1006A00010B54FF40074204600F022F8002813D053
:1006B0000A480268517A880609D5094B186830B98A
:1006C00021F0200050720120186000F0C7FB204686
:1006D000BDE8104000F006B810BD0000100000207A
:1006E0000800002001490860704700001404014020
:1006F000064A014600201268044B0A4014331B6866
:100700000B4202D0002A00D00120704700040140B3
:1007100030B51A498379026853B30B6893430B6071
:100720000A1D13680468A343136002790A4413681E
:10073000046823431360114A083213680468A34312
:100740001360131D1C680568AC431C604479102CB1
:1007500005D021440A68006802430A6030BD116870
:10076000046821431160196800680143196030BDB5
:100770000079084401689143016030BD00040140E4
:1007800010B58A0721F003040649130F21440F22F4
:100790008C689A4094438C608A68984002438A60CF
:1007A00010BD000000000140F0B5CA78002502F03D
:1007B0000F03D20601D58A7813430A784FF00F0E43
:1007C00012F0FF0F4FF001021CD004680F8802FAEC
:1007D00005F63740B74211D14FEA850C0EFA0CF7F7
:1007E00024EA070703FA0CF43C43CF78282F02D001
:1007F000482F02D002E0466100E006616D1C082D22
:10080000E4D304600C88FF2C1ED944685FF0000616
:1008100006F1080702FA07F50F882F40AF420FD103
:100820004FEA860C0EFA0CF7BC4303FA0CF73C4374
:10083000CF78282F00D14561CF78482F00D10561AE
:10084000761C082EE4D34460F0BD02460020926876
:100850000A4200D001207047416170470161704732
:100860000549096889B201EBC000044901EB400069
:10087000008980B270470000505C0040006000407A
:100880000449096889B201EBC000034931F810003E
:1008900080B27047505C0040006000400A4810B5CC
:1008A0000168001D0468001D006808180BD00822AC
:1008B000064900F03DF8054920460422BDE81040F5
:1008C000103100F035B810BDE8F7FF1F0601002019
:1008D000FEE7000010B5134C2068017A022904D00D
:1008E000042902D0062905D015E0FFF745FD206850
:1008F000007A11E04178052909D10178490606D12D
:10090000C07800F063FB08480068006A8047074829
:10091000006880688047082021680872BDE81040A0
:1009200000F042BA1000002018000020140000203F
:10093000F0B500230A24302537261F4611E000BFFA
:10094000B4EB107F02D905EB107C01E006EB107CC4
:1009500001F813C001EB430C00015B1C8CF8017023
:10096000DBB29342ECD3F0BD10B5032000F0CAFA1D
:1009700000284FF004000BD000F0C4FA48B1052065
:1009800000F0C0FA38B1062000F0BCFA28B100200F
:1009900010BD032010BD052010BD022010BD0000B9
:1009A000124910B50A680628117801F07F0103D1B9
:1009B000012901D1537913B121290AD013E090788C
:1009C000222802D0212802D00DE0094904E009497B
:1009D00002E0032807D1084929B100209161508223
:1009E0008847002010BD022010BD0000100000202C
:1009F0003D0A0008150A0008210A0008014900F014
:100A00002BBD000078000020014900F025BD00004A
:100A100070000020014900F01FBD00008800002088
:100A200008B1044870470449012009680882002081
:100A3000704700006C00002010000020014900F009
:100A40000BBD00008000002005490968C978042911
:100A500001D300207047034A02EBC10100F0FCBC47
:100A600010000020C000002009B9002800D002209A
:100A70007047000006490968097801F07F012129C3
:100A800001D10B2801D00220704700F089B8000086
:100A900010000020224810B5006800218172C17248
:100AA0002049C9794172002000F088FA4FF40071A2
:100AB000002000F051FB1021002000F023FB182142
:100AC000002000F0A7FA5821002000F0FDFA0020D5
:100AD000FFF742FC144890F82C10002000F0AAFA0E
:100AE000002000F0DFFA4FF4C061012000F034FB79
:100AF0004FF48071012000F0E7FA0421012000F09A
:100B0000F3FA0021012000F0B5FA2021012000F0C5
:100B1000F9FA002000F05AFA04490120086010BDDB
:100B200010000020861A00089000002064010020B8
:100B300038B5002422462146009402280CD0631FB9
:100B4000032805D0042805D0052814D1194604E04F
:100B50001A4602E0052200E0052107488DF8012031
:100B60008DF80210047004226946812000F0D6FE40
:100B7000012000F0DFFA38BD740100200348807ABC
:100B8000002802D002490520086070477801002043
:100B900064010020014904200860704764010020BE
:100BA000034804490068C0780860002070470000CE
:100BB000100000206C0000207047704710B5FFF750
:100BC0006DFE054800240068847200F00FF900F003
:100BD00095FE0248046010BD100000206401002052
:100BE000FEE770477047000070B50F23C4780178A6
:100BF0000122F4B1144C2468457804F4E064C4F58F
:100C0000E064240AC4F10406E3408478B5401C4043
:100C10002C4301F1E021230181F80034007800F039
:100C20001F018A404009800000F1E020C0F8002147
:100C300070BD01F01F0082404809800000F1E020F3
:100C4000C0F8802170BD00000CED00E002490843AF
:100C500002490860704700000000FA050CED00E052
:100C600070B5304D4FF000062868017844784A0688
:100C700006D001F07F0001282AD002282DD037E0CD
:100C8000092C06D0052C07D0032C0ED0012C14D033
:100C90002EE000F04DFC2AE0C1787F2930D8817821
:100CA00071BB818861BB807A29E0C17801291FD19D
:100CB0008088E8B900F058FC19E0C178012917D103
:100CC0008188A9B9407A800612D51748466009E0A4
:100CD0000B2C0DD100F09EFC09E0012C02D0032C5E
:100CE00003D005E000F026FB01E000F04FFC58B116
:100CF0000E492046096849698847032802D018B17F
:100D000008200CE009200AE0094906200968094A80
:100D1000090402EBD131084A4E6030211180296864
:100D2000087270BD10000020040000201400002094
:100D3000505C0040006000400200002010B50F4CE5
:100D40002068007A022811D004280FD0032804D08C
:100D5000052802D0072805D008E0FFF767FB2068C8
:100D6000007A04E006480068C068804708202168CF
:100D70000872BDE8104000F017B800001000002015
:100D800014000020064B521C520803EB410105D011
:100D900031F8043B20F8023B521EF9D170470000A5
:100DA00000600040704700000C4810B590F82C100F
:100DB000002000F03FF90A480068007A082802D0B5
:100DC000092809D006E007494FF4805008800649F9
:100DD00010200880002010BD012010BD90000020D0
:100DE00010000020000000200200002070B501204B
:100DF00000F0A0FC084C01202060084D0020288055
:100E00002060201D0068002000F0B4F94FF4E0508D
:100E100028802060002070BD405C00401C00002045
:100E2000044A0029D16901D0014300E08143D16126
:100E30007047000000100240044A0029916901D067
:100E4000014300E0814391617047000000100240BF
:100E50000149C1F8D800704700004242F0B5214A6C
:100E6000072800D0107016781E4B06250521042493
:100E70001D48062E0AD2DFE806F0030B10151D26CA
:100E8000586808B11170F0BD00F030F81570F0BD71
:100E900000F02CF81470012022E002205070032092
:100EA0001070F0BD5078401E507050780028F8D176
:100EB0001470F0BD03689BB243F01003036011701F
:100EC0000A205070F0BD5178491E517051780029A8
:100ED000F8D1016889B221F010010160157000207D
:100EE0005860F0BD6C010020405C0040044801687F
:100EF00089B221F0040101604FF43F410160704765
:100F0000405C00400349044A31F8101052F82000B8
:100F1000FFF79BBC041A0008480000207FB5044678
:100F200023480D46012150F8240040F00100FFF74E
:100F300083FF04208DF80F001D4803A9103830F8F6
:100F40001400ADF80C001B4850F82400FFF72CFCEF
:100F5000012D2CD11648403010F81410103810F81C
:100F60001400FFF70DFC1248203030F814000090F8
:100F700000208DF804000CB10C2000E008208DF852
:100F8000050001258DF806506846FFF7C1FB0848AB
:100F9000503010F814008DF808000F208DF809006B
:100FA0008DF80A008DF80B5002A8FFF71DFE7FBDDB
:100FB000141A00084800002070470000024920F081
:100FC0000700086070470000505C0040F0B50E4913
:100FD0000E4D48F68F770B78002148F2800C0BE01D
:100FE000CEB205EB8604D4F8002C3A40324342EAF4
:100FF0000C02C4F8002C491C9942F1D3044940F07A
:1010000080000860F0BD0000680000200050004033
:101010004C5C0040054A21F00101126892B202EBDB
:10102000C000034A02EB400081607047505C004002
:10103000006000400D4A12683E2992B202EBC000E7
:101040000B4A02EB400209D94809C90601D1401EEA
:1010500080B24FF4004141EA802004E04808C9070B
:1010600000D0401C8002106070470000505C0040BF
:101070000C60004082000A480244D2F8000C4BF693
:101080008F731840CB0401D580F48050890401D5BA
:1010900080F4005048F280010843C2F8000C704709
:1010A00000500040810007480144D1F8000C4BF685
:1010B0008F72104080F4405048F280021043C1F813
:1010C000000C704700500040054A21F001011268F1
:1010D00092B202EBC000034A42F8101070470000C1
:1010E000505C004000600040044A126892B202EB7B
:1010F000C000034A02EB400041607047505C004072
:101100000060004082000A480244D2F8000C48F611
:10111000BF731840CB0601D580F01000890601D5B9
:1011200080F0200048F280010843C2F8000C7047AC
:1011300000500040810007480144D1F8000C48F6F7
:10114000BF72104080F0300048F280021043C1F8B6
:10115000000C704700500040820005480244D2F85D
:10116000000C48F68F1318400843C2F8000C704773
:10117000005000400149086070470000445C004096
:101180000CB50021264801910091026842F480329A
:1011900002604FF4A063026802F400320092019AE8
:1011A000521C0192009A12B9019A9A42F3D1026834
:1011B000920333D5012100911A490A6842F01002C6
:1011C0000A600A6822F007020A600A6842F0020216
:1011D0000A604168416041684160416841F4806152
:1011E0004160416821F47C114160416841F4E8119B
:1011F0004160016841F08071016001688901FCD59E
:10120000416821F003014160416841F00201416001
:101210004168C1F381010229FAD10CBD00910CBDD6
:10122000001002400020024038B501210807FFF7F6
:10123000F7FD01210420FFF7FFFD4FF4C050ADF88A
:10124000000003248DF8024018208DF80300694641
:101250001748FFF7A9FA01217C20FFF7EDFD4FF4B5
:101260000075ADF800508DF8024014208DF8030091
:1012700069461048FFF798FA01212020FFF7DCFDAE
:1012800000210320FFF74AFE00210420FFF746FE5D
:1012900000210520FFF742FE00210620FFF73EFE59
:1012A00001210220FFF73AFE2846FFF71BFA38BD5E
:1012B000000801400014014010B50020FFF7C8FDF0
:1012C0000121BDE81040C805FFF7AABD70B516485A
:1012D0000068174D0004C10B14480144098989B204
:1012E00000EB41042868017A09290FD021780170A8
:1012F00061784170A088FEF753FF296848802089F3
:10130000FEF74EFF29688880A089C88028680121DF
:101310000172C08828B1FFF7EDF8BDE87040FFF713
:1013200043BDFFF79DFCF8E7505C004000600040C3
:10133000100000202DE9F04138480068017811F0D4
:101340007F0102D0022905D066E0417A01F0DF0179
:1013500041724EE0418800295ED10179F1BB4179AB
:10136000304D21F080040A0605EB84022C4BD2F8A4
:10137000002C03D5C2F30112120102E0C2F30132C4
:1013800012031E782346A64246D93AB3807A28B380
:1013900008064FEA84000ED52844D0F8000CC0F3AC
:1013A0000110012821D11846FEF7C2FF2046302146
:1013B000FFF7A8FE19E04619D6F8000CC0F301307B
:1013C000012812D14BF68F7748F28008A4B1184655
:1013D000FEF79AFFD6F8000C384000E01CE080F4DD
:1013E000405040EA0800C6F8000C0F480068406909
:1013F00080470020BDE8F0810C4890F82C100020B8
:10140000FFF718FED5F8000C384080F4405040EA51
:101410000800C5F8000CE8E70220EBE71000002008
:1014200068000020005000401800002090000020BC
:1014300010B5074C30B10748006800688047206845
:101440000A3010BD216801200882002010BD000074
:101450001000002018000020054A13685A8A10B1B5
:101460000868104470478888801A188200207047E6
:101470001000002010B5074C30B1074800688068A4
:10148000804720680C3010BD2168012008820020B0
:1014900010BD00001000002018000020204910B5E9
:1014A000096860B11F48002202800A7853060AD0FA
:1014B00002F07F02012A16D0022A16D001E0022093
:1014C0000882002010BD497A8A06027802D542F0CF
:1014D000020201E002F0FD0249060270D1B211D40D
:1014E00001F0FE0110E00F4810BD4A791107130604
:1014F0000D4A02EB9161D1F8001C07D5C1F301112F
:1015000006E0017841F00101017003E0C1F301310F
:101510000129F6D00548006800698047E3E700002C
:10152000100000200600002000500040180000209D
:101530000A4810B500680A4AC1785278914203D827
:1015400082780AB982880AB1022010BD81720548EA
:10155000006840688047002010BD00001000002097
:101560006800002018000020064810B50068417A85
:1015700041F02001417204480068C06980470020A2
:1015800010BD0000100000201800002070B51D489C
:101590001D4D0368597921F0800005EB80000C0691
:1015A000D0F8004C21F0800203D5C4F301142401CB
:1015B00002E0C4F301342403144D2D78954210D970
:1015C0005A8872B96CB19A7A5AB10906D0F8001CDF
:1015D00048F2800207D548F6BF73194081F0100128
:1015E00006E0022070BD4BF68F73194081F48051E4
:1015F0001143C0F8001C064800688069804700203D
:1016000070BD000010000020005000406800002065
:101610001800002010B50E4C0E4A20681268C178E0
:1016200092694079904721688A7A22B118B908797D
:1016300008B9887808B1022010BD07480068C06862
:10164000804720684179C172C1780173002010BDC4
:1016500010000020140000201800002070B51B4965
:1016600000200A681A4B94B21A4A00BF03EB8005A7
:10167000D5F8005CADB242F82050401C0828F5D3E4
:1016800044F48060086040F00100086020F001042C
:101690000C600E48001D05686D05FCD54FF6FF3542
:1016A0000560002052F8205003EB8006ADB2C6F86A
:1016B000005C401C0828F5D344F008000860086866
:1016C00080B240F00400086070BD0000405C004043
:1016D0000050004094010020704700000F4810B5F2
:1016E000016841F00101016041680D4A114041600B
:1016F00001680C4A11400160016821F480210160F9
:10170000416821F4FE0141604FF41F018160FFF741
:1017100037FD05494FF00060086010BD0010024021
:101720000000FFF8FFFFF6FE08ED00E04FF4802018
:10173000FEF7D8BF044A00284FF40071104601D0CC
:10174000FFF78AB8FFF78AB8001401400648054938
:10175000022201600A72064A0449C0E901120868BF
:1017600000470000780100201000002090000020B9
:10177000E000002038B54FF4A060FFF767FA1420AE
:101780008DF8000005208DF8010000248DF802403E
:1017900001208DF803006846FFF726FA17208DF820
:1017A00000008DF801406846FFF71EFA38BD0000C2
:1017B0002DE9F0414A4E88B000243068494D6880D8
:1017C0006888494F39880840000401D5FEF7EEFCCF
:1017D000688839884FF6FF380840400504D5C6F8B8
:1017E0000080424840688047698838880140890401
:1017F00002D54DF6FF71316069880140C80405D5F6
:101800004EF6FF7030600020FFF728FB68883988AB
:10181000084000050BD53648007810B1FFF71EFFD1
:1018200002E00220FFF71AFB4FF2FF703060698878
:1018300038880140890505D54FF6FF513160297878
:10184000491C297069880140C80545D54FF6FF60DD
:1018500030602348001D00684FF00001000437D5B8
:101860006868401C68606868032832D91C48001FFB
:10187000026812072DD4026892B2AA601D4A6B4614
:1018800002EB8407D7F8007CBFB243F82470641CD5
:10189000082CF5D3AC6844F00104AC60AC68A4B289
:1018A0000460AC6824F00104AC60AC68A4B20460CD
:1018B00030684005FCD5C6F80080002053F8204071
:1018C00002EB8006A4B2C6F8004C401C0828F5D3F1
:1018D00069600720FFF7C2FA08B0BDE8F081000098
:1018E000445C0040200100201C00002090000020EB
:1018F0006801002000500040FFF75ABF0549002052
:10190000086005494FF43F4008800249091F0860FC
:1019100000207047445C00401C00002070B500F0BF
:101920007F0514460E462846FEF7AAFF0146A2B2DE
:10193000304600F007F8A1B22846FFF7D5FB00209B
:1019400070BDFEE7094B10B5521C520803EB410174
:101950000AD000BF10F8013B521E10F8014B43EAB9
:10196000042321F8043BF5D110BD000000600040C5
:1019700002E008C8121F08C1002AFAD17047704758
:10198000002001E001C1121F002AFBD170470000B6
:10199000FFF74AFCFFF7EEFEFFF78EFCFFF7D6FEDF
:1019A000084C094D20680528FCD1FEF7DDFF002812
:1019B000F8D028780028F5D0FEF7D6FFFFF7B8F862
:1019C000F0E7000064010020740100200002200004
:1019D00000044000400080000001000200400000C0
:1019E00000000200040000002000000004000000CD
:1019F0002000000010000000100000001000000097
:101A0000100000000100002000020100020000019F
:101A1000004000100400000010000000080000005A
:101A200040000000400000002000000020000000F6
:101A3000200000000100002000020100020000015F
:101A40000040001000000200010004000400030038
:101A50000300030000000D00090000000100080061
:101A60000E000C00060028001700060007001700F3
:101A700028002800120100020000004083041057D3
:101A800000020102030109022200010100E0320903
:101A90000400000103010200092100010001224AA3
:101AA000000705810304002005010902A1010901C5
:101AB000A1000509190129031500250195037501E8
:101AC0008102950175058101050109300931093847
:101AD0001581257F750895038106C0093C05FF091E
:101AE000011500250175019502B12275069501B118
:101AF00001C0040309042603530054004D0069008B
:101B0000630072006F0065006C0065006300740084
:101B100072006F006E006900630073001E035300C3
:101B200054004D003300320020004A006F0079005D
:101B300073007400690063006B0000005C1B000808
:101B4000000000207801000048010008FC1B00088C
:101B50007801002040040000801900080121143899
:101B60000140124412401A08081A14046908DA10D5
:101B700004291829081A0C045A180429285904633E
:101B8000020113741A3308121A860832221AA8089E
:101B9000324A1A9808320913BD0B1408950A1B081B
:101BA000B9081ABB0413A1091B0875101A69041A95
:101BB00009041AFD101A49084132401AF238320459
:101BC0001AF6083226131C1B33081E130401332097
:101BD0001A1AE5441A7D0429080912041A950414F6
:101BE0001A03531254124D1233021D320B1895066C
:0C1BF00048091A0441B201290C00000051
:04000005080000ED02
:00000001FF
